:020000040000FA
:040000008A01182831
:0800080000000900831681309D
:1000100081003F30850000308600FF3087000030CF
:1000200088000730890006309F008312672408008B
:10003000062067242D30A000FF30A100003081246D
:100040000030862400308B2400309024003095242A
:1000500000309A2400309F240630A424A10B2E28BF
:10006000A00B1C2867242D30A000FF30A100003019
:1000700081240030862400308B240030902400300E
:10008000952400309A2406309F243730A424A10BF5
:100090004728A00B352867242D30A000FF30A10091
:1000A000003081240030862400308B2400309024DE
:1000B0000030952406309A2437309F246D30A424D4
:1000C000A10B6028A00B4E2867242D30A000FF3024
:1000D000A100003081240030862400308B240030C1
:1000E00090240630952437309A246D309F24783040
:1000F000A424A10B7928A00B672867242D30A00029
:10010000FF30A100003081240030862400308B2491
:1001100006309024373095246D309A2478309F240F
:100120000630A424A10B9228A00B802867242D3030
:10013000A000FF30A100003081240030862406306A
:100140008B24373090246D30952478309A240630F3
:100150009F247830A424A10BAB28A00B99286724F6
:100160002D30A000FF30A10000308124063086240D
:1001700037308B246D3090247830952406309A24C3
:1001800078309F243E30A424A10BC428A00BB228B1
:1001900067242D30A000FF30A100063081243730C5
:1001A00086246D308B247830902406309524783066
:1001B0009A243E309F247830A424A10BDD28A00B84
:1001C000CB2867242D30A000FF30A10037308124D8
:1001D0006D30862478308B24063090247830952436
:1001E0003E309A2478309F243F30A424A10BF62877
:1001F000A00BE42867242D30A000FF30A1006D3053
:1002000081247830862406308B24783090243E3048
:10021000952478309A243F309F240030A424A10BE9
:100220000F29A00BFD2867242D30A000FF30A1006E
:10023000783081240630862478308B243E30902418
:10024000783095243F309A2400309F247330A424C2
:10025000A10B2829A00B162967242D30A000FF3000
:10026000A10006308124783086243E308B247830FB
:1002700090243F30952400309A2473309F243F30DF
:10028000A424A10B4129A00B2F2967242D30A00005
:10029000FF30A100783081243E30862478308B24D2
:1002A0003F3090240030952473309A243F309F24AF
:1002B0003830A424A10B5A29A00B482967242D30DB
:1002C000A000FF30A1003E308124783086243F30EA
:1002D0008B2400309024733095243F309A2438309A
:1002E0009F240630A424A10B7329A00B6129672445
:1002F0002D30A000FF30A100783081243F308624CB
:1003000000308B24733090243F30952438309A2469
:1003100006309F247830A424A10B8C29A00B7A29C5
:1003200067242D30A000FF30A1003F308124003031
:10033000862473308B243F30902438309524063047
:100340009A2478309F247930A424A10BA529A00BEE
:10035000932967242D30A000FF30A10000308124B4
:10036000733086243F308B24383090240630952417
:1003700078309A2479309F243930A424A10BBE29E7
:10038000A00BAC2967242D30A000FF30A1007330F2
:1003900081243F30862438308B24063090247830F6
:1003A000952479309A2439309F243730A424A10B26
:1003B000D729A00BC52967242D30A000FF30A1004C
:1003C0003F3081243830862406308B2478309024C6
:1003D0007930952439309A2437309F240630A4246C
:1003E000A10BF029A00BDE2967242D30A000FF30DF
:1003F000A100383081240630862478308B2479306F
:1004000090243930952437309A2406309F2439308F
:10041000A424A10B092AA00BF72967242D30A000E2
:10042000FF30A100063081247830862479308B2477
:10043000393090243730952406309A2439309F245F
:100440003F30A424A10B222AA00B102A67242D30B0
:10045000A000FF30A1007830812479308624393023
:100460008B24373090240630952439309A243F303D
:100470009F240030A424A10B3B2AA00B292A672427
:100480002D30A000FF30A10079308124393086243E
:1004900037308B2406309024393095243F309A240D
:1004A00000309F243730A424A10B542AA00B422AE9
:1004B00067242D30A000FF30A1003930812437306F
:1004C000862406308B24393090243F309524003028
:1004D0009A2437309F247730A424A10B6D2AA00BD7
:1004E0005B2A67242D30A000FF30A1003730812423
:1004F0000630862439308B243F30902400309524F8
:1005000037309A2477309F243930A424A10B862ACF
:10051000A00B742A67242D30A000FF30A100063004
:100520008124393086243F308B24003090243730AA
:10053000952477309A2439309F240630A424A10BC7
:100540009F2AA00B8D2A67242D30A000FF30A10028
:10055000393081243F30862400308B24373090247A
:100560007730952439309A2406309F243F30A424D4
:10057000A10BB82AA00BA62A67242D30A000FF30BB
:10058000A1003F3081240030862437308B2477301F
:1005900090243930952406309A243F309F243730F8
:1005A000A424A10BD12AA00BBF2A67242D30A000C0
:1005B000FF30A100003081243730862477308B242F
:1005C00039309024063095243F309A2437309F24C8
:1005D0007730A424A10BEA2AA00BD82A67242D3057
:1005E000A000FF30A10037308124773086243930D5
:1005F0008B24063090243F30952437309A2477306E
:100600009F243830A424A10B032BA00BF12A6724CC
:100610002D30A000FF30A1007730812439308624AE
:1006200006308B243F3090243730952477309A243D
:1006300038309F240030A424A10B1C2BA00B0A2BC4
:1006400067242D30A000FF30A1003930812406300E
:1006500086243F308B2437309024773095243830EF
:100660009A2400309F243930A424A10B352BA00BF1
:10067000232B67242D30A000FF30A10006308124F9
:100680003F30862437308B247730902438309524BF
:1006900000309A2439309F247930A424A10B4E2BAA
:1006A000A00B3C2B67242D30A000FF30A1003F3071
:1006B00081243730862477308B24383090240030E2
:1006C000952439309A2479309F243930A424A10B01
:1006D000672BA00B552B67242D30A000FF30A10005
:1006E000373081247730862438308B2400309024B2
:1006F0003930952479309A2439309F246E30A424DF
:10070000A10B802BA00B6E2B67242D30A000FF3097
:10071000A100773081243830862400308B24393092
:1007200090247930952439309A246E309F24783083
:10073000A424A10B992BA00B872B67242D30A0009C
:10074000FF30A100383081240030862439308B24DA
:1007500079309024393095246E309A2478309F2453
:100760000030A424A10BB22BA00BA02B67242D30AA
:10077000A000FF30A1000030812439308624793078
:100780008B24393090246E30952478309A240030B0
:100790009F246F30A424A10BCB2BA00BB92B672473
:1007A0002D30A000FF30A10039308124793086241B
:1007B00039308B246E3090247830952400309A2480
:1007C0006F309F240030A424A10BE42BA00BD22B6C
:1007D00067242D30A000FF30A1007930812439300A
:1007E00086246E308B2478309024003095246F302E
:1007F0009A2400309F241E30A424A10BFD2BA00BB3
:10080000EB2B67242D30A000FF30A100393081246C
:100810006E30862478308B24003090246F309524FD
:1008200000309A241E309F243E30A424A10B162CA5
:10083000A00B042C67242D30A000FF30A1006E30E7
:1008400081247830862400308B246F30902400304F
:1008500095241E309A243E309F247730A424A10B87
:100860002F2CA00B1D2C67242D30A000FF30A100E1
:1008700078308124003086246F308B24003090241F
:100880001E3095243E309A2477309F243730A4249C
:10089000A10B482CA00B362C67242D30A000FF3074
:1008A000A100003081246F30862400308B241E305C
:1008B00090243E30952477309A2437309F2400309E
:1008C000A424A10B612CA00B4F2C6724A92C081485
:1008D0008814081588150816881608178817061032
:1008E000861006118611061286120613861308005A
:1008F0000330A2007E30A300A30B7C2CA20B7A2C29
:100900000800860008107824081408008600881063
:100910007824881408008600081178240815080037
:10092000860088117824881508008600081278242B
:1009300008160800860088127824881608008600A9
:10094000081378240817080086008813782488176D
:0609500008000A128A15DE
:101000002D30A000FF30A1006F30A0270030A527B1
:101010001E30AA273E30AF277730B4273730B927A4
:101020000030BE275E30C327A10B1428A00B022876
:1010300086272D30A000FF30A1000030A0271E30F1
:10104000A5273E30AA277730AF273730B4270030A6
:10105000B9275E30BE277930C327A10B2D28A00BFE
:101060001B2886272D30A000FF30A1001E30A027AE
:101070003E30A5277730AA273730AF270030B42776
:101080005E30B9277930BE270030C327A10B462830
:10109000A00B342886272D30A000FF30A1003E3061
:1010A000A0277730A5273730AA270030AF275E303A
:1010B000B4277930B9270030BE275E30C327A10B93
:1010C0005F28A00B4D2886272D30A000FF30A100FF
:1010D0007730A0273730A5270030AA275E30AF270A
:1010E0007930B4270030B9275E30BE270630C327D9
:1010F000A10B7828A00B662886272D30A000FF3092
:10110000A1003730A0270030A5275E30AA2779300C
:10111000AF270030B4275E30B9270630BE275C30D9
:10112000C327A10B9128A00B7F2886272D30A00074
:10113000FF30A1000030A0275E30A5277930AA2714
:101140000030AF275E30B4270630B9275C30BE27A9
:101150006D30C327A10BAA28A00B982886272D3015
:10116000A000FF30A1005E30A0277930A527003015
:10117000AA275E30AF270630B4275C30B9276D3020
:10118000BE270030C327A10BC328A00BB128862798
:101190002D30A000FF30A1007930A0270030A52716
:1011A0005E30AA270630AF275C30B4276D30B927F0
:1011B0000030BE277C30C327A10BDC28A00BCA2837
:1011C00086272D30A000FF30A1000030A0275E3020
:1011D000A5270630AA275C30AF276D30B427003032
:1011E000B9277C30BE277730C327A10BF528A00B89
:1011F000E32886272D30A000FF30A1005E30A02715
:101200000630A5275C30AA276D30AF270030B42701
:101210007C30B9277730BE277830C327A10B0E2941
:10122000A00BFC2886272D30A000FF30A10006303F
:10123000A0275C30A5276D30AA270030AF277C306F
:10124000B4277730B9277830BE270630C327A10BE3
:101250002729A00B152986272D30A000FF30A100DB
:101260005C30A0276D30A5270030AA277C30AF273F
:101270007730B4277830B9270630BE275B30C327D4
:10128000A10B4029A00B2E2986272D30A000FF306E
:10129000A1006D30A0270030A5277C30AA27773029
:1012A000AF277830B4270630B9275B30BE2700302F
:1012B000C327A10B5929A00B472986272D30A00051
:1012C000FF30A1000030A0277C30A5277730AA2767
:1012D0007830AF270630B4275B30B9270030BE27FF
:1012E0007330C327A10B7229A00B602986272D30EC
:1012F000A000FF30A1007C30A0277730A5277830F0
:10130000AA270630AF275B30B4270030B9277330E7
:10131000BE275030C327A10B8B29A00B7929862724
:101320002D30A000FF30A1007730A0277830A5270E
:101330000630AA275B30AF270030B4277330B927B7
:101340005030BE277730C327A10BA429A00B9229C8
:1013500086272D30A000FF30A1007830A02706306E
:10136000A5275B30AA270030AF277330B427503051
:10137000B9277730BE275830C327A10BBD29A00B52
:10138000AB2986272D30A000FF30A1000630A02712
:101390005B30A5270030AA277330AF275030B42721
:1013A0007730B9275830BE277830C327A10BD6290C
:1013B000A00BC42986272D30A000FF30A1005B3090
:1013C000A0270030A5277330AA275030AF277730E9
:1013D000B4275830B9277830BE270630C327A10B71
:1013E000EF29A00BDD2986272D30A000FF30A100BA
:1013F0000030A0277330A5275030AA277730AF27B9
:101400005830B4277830B9270630BE273930C32783
:10141000A10B082AA00BF62986272D30A000FF304B
:10142000A1007330A0275030A5277730AA27583065
:10143000AF277830B4270630B9273930BE27773048
:10144000C327A10B212AA00B0F2A86272D30A0002D
:10145000FF30A1005030A0277730A5275830AA27A9
:101460007830AF270630B4273930B9277730BE2718
:101470000030C327A10B3A2AA00B282A86272D303B
:10148000A000FF30A1007730A0275830A527783082
:10149000AA270630AF273930B4277730B927003074
:1014A000BE276630C327A10B532AA00B412A8627EB
:1014B0002D30A000FF30A1005830A0277830A5279C
:1014C0000630AA273930AF277730B4270030B92744
:1014D0006630BE270030C327A10B6C2AA00B5A2A06
:1014E00086272D30A000FF30A1007830A0270630DD
:1014F000A5273930AA277730AF270030B4276630C8
:10150000B9270030BE273930C327A10B852AA00B8D
:10151000732A86272D30A000FF30A1000630A027B7
:101520005830A5277730AA270030AF276630B42778
:101530000030B9273930BE275C30C327A10B9E2A63
:10154000A00B8C2A86272D30A000FF30A100583038
:10155000A0277730A5270030AA276630AF270030B4
:10156000B4275830B9275C30BE275430C327A10BAD
:10157000B72AA00BA52A86272D30A000FF30A10096
:101580007730A0270030A5276630AA270030AF2784
:101590005830B4275C30B9275430BE277830C32781
:1015A000A10BD02AA00BBE2A86272D30A000FF3029
:1015B000A1000030A0276630A5270030AA275830A8
:1015C000AF275C30B4275430B9277830BE2750306D
:1015D000C327A10BE92AA00BD72A86272D30A0000C
:1015E000FF30A1006630A0270030A5275830AA2779
:1015F0005C30AF275430B4277830B9275030BE273D
:101600005C30C327A10B022BA00BF02A86272D30BC
:10161000A000FF30A1000030A0275830A5275C3083
:10162000AA275430AF277830B4275030B9275C3020
:10163000BE270630C327A10B1B2BA00B092B862727
:101640002D30A000FF30A1005830A0275C30A52726
:101650005430AA277830AF275030B4275C30B927F0
:101660000630BE270030C327A10B342BA00B222B42
:1016700086272D30A000FF30A1005C30A027543019
:10168000A5277830AA275030AF275C30B427063022
:10169000B9270030BE275E30C327A10B4D2BA00B0E
:1016A0003B2B86272D30A000FF30A1005430A0270F
:1016B0007830A5275030AA275C30AF270630B427F2
:1016C0000030B9275E30BE277930C327A10B662BC7
:1016D000A00B542B86272D30A000FF30A1007830BE
:1016E000A0275030A5275C30AA270630AF2700304E
:1016F000B4275E30B9277930BE270030C327A10B4D
:101700007F2BA00B6D2B86272D30A000FF30A10072
:101710005030A0275C30A5270630AA270030AF271D
:101720005E30B4277930B9270030BE275E30C3273A
:10173000A10B982BA00B862B86272D30A000FF3005
:10174000A1005C30A0270630A5270030AA275E3014
:10175000AF277930B4270030B9275E30BE27063076
:10176000C327A10BB12BA00B9F2B86272D30A000E8
:10177000FF30A1000630A0270030A5275E30AA2741
:101780007930AF270030B4275E30B9270630BE2746
:101790006D30C327A10BCA2BA00BB82B86272D3089
:1017A000A000FF30A1000030A0275E30A5277930CF
:1017B000AA270030AF275E30B4270630B9276D3036
:1017C000BE277330C327A10BE32BA00BD12B862799
:1017D0002D30A000FF30A1005E30A0277930A52772
:1017E0000030AA275E30AF270630B4276D30B92706
:1017F0007330BE270630C327A10BFC2BA00BEA2BAE
:1018000086272D30A000FF30A1007930A0270030BE
:10181000A5275E30AA270630AF276D30B427733076
:10182000B9270630BE277730C327A10B152CA00B94
:10183000032C86272D30A000FF30A1000030A02708
:101840005E30A5270630AA276D30AF277330B42746
:101850000630B9277730BE276E30C327A10B2E2C58
:10186000A00B1C2C86272D30A000FF30A1005E307D
:10187000A0270630A5276D30AA277330AF27063082
:10188000B4277730B9276E30BE276D30C327A10B40
:10189000472CA00B352C86272D30A000FF30A1004F
:1018A0000630A0276D30A5277330AA270630AF2752
:1018B0007730B4276E30B9276D30BE270030C3278C
:1018C000A10B602CA00B4E2C86272D30A000FF30E2
:1018D000A1006D30A0277330A5270630AA277730E6
:1018E000AF276E30B4276D30B9270030BE27733074
:1018F000C327A10B792CA00B672C86272D30A000C5
:10190000FF30A1007330A0270630A5277730AA2723
:101910006E30AF276D30B4270030B9277330BE2743
:101920005C30C327A10B922CA00B802C86272D3076
:10193000A000FF30A1000630A0277730A5276E3029
:10194000AA276D30AF270030B4277330B9275C3039
:10195000BE275030C327A10BAB2CA00B992C862798
:101960002D30A000FF30A1007730A0276E30A527D2
:101970006D30AA270030AF277330B4275C30B92709
:101980005030BE270030C327A10BC42CA00BB22CB3
:1019900086272D30A000FF30A1006E30A0276D30CB
:1019A000A5270030AA277330AF275C30B42750300A
:1019B000B9270030BE277830C327A10BDD2CA00B40
:1019C000CB2C86272D30A000FF30A1006D30A02742
:1019D0000030A5277330AA275C30AF275030B427DA
:1019E0000030B9277830BE275E30C327A10BF62C14
:1019F000A00BE42C86272D30A000FF30A100003082
:101A0000A0277330A5275C30AA275030AF270030BD
:101A1000B4277830B9275E30BE273730C327A10BF3
:101A20000F2DA00BFD2C86272D30A000FF30A1002C
:101A30007330A0275C30A5275030AA270030AF278D
:101A40007830B4275E30B9273730BE273730C32708
:101A5000A10B282DA00B162D86272D30A000FF30BE
:101A6000A1005C30A0275030A5270030AA2778308D
:101A7000AF275E30B4273730B9273730BE27003064
:101A8000C327A10B412DA00B2F2D86272D30A000A1
:101A9000FF30A1005030A0270030A5277830AA27BA
:101AA0005E30AF273730B4273730B9270030BE2734
:101AB0007D30C327A10B5A2DA00B482D86272D3032
:101AC000A000FF30A1000030A0277830A5275E30AD
:101AD000AA273730AF273730B4270030B9277D30F9
:101AE000BE275030C327A10B732DA00B612D862775
:101AF0002D30A000FF30A1007830A0275E30A52750
:101B00003730AA273730AF270030B4277D30B927C8
:101B10005030BE271C30C327A10B8C2DA00B7A2D73
:101B200086272D30A000FF30A1005E30A02737307F
:101B3000A5273730AA270030AF277D30B427503093
:101B4000B9271C30BE277330C327A10BA52DA00BCE
:101B5000932D86272D30A000FF30A1003730A0271D
:101B60003730A5270030AA277D30AF275030B42763
:101B70001C30B9277330BE275C30C327A10BBE2DA4
:101B8000A00BAC2D86272D30A000FF30A1003730F0
:101B9000A0270030A5277D30AA275030AF271C3062
:101BA000B4277330B9275C30BE270030C327A10BA0
:101BB000D72DA00BC52D86272D30A000FF30A1000A
:101BC0000030A0277D30A5275030AA271C30AF2732
:101BD0007330B4275C30B9270030BE276D30C3277F
:101BE000A10BF02DA00BDE2D86272D30A000FF309D
:101BF000A1007D30A0275030A5271C30AA277330C4
:101C0000AF275C30B4270030B9276D30BE270630CF
:101C1000C327A10B092EA00BF72D86272D30A0007E
:101C2000FF30A1005030A0271C30A5277330AA2711
:101C30005C30AF270030B4276D30B9270630BE279F
:101C40003730C327A10B222EA00B102E86272D3054
:101C5000A000FF30A1001C30A0277330A5275C3006
:101C6000AA270030AF276D30B4270630B9273730A8
:101C7000BE273730C327A10B3B2EA00B292E86276A
:101C80002D30A000FF30A1007330A0275C30A527C5
:101C90000030AA276D30AF270630B4273730B92778
:101CA0003730BE270630C327A10B542EA00B422E7F
:101CB00086272D30A000FF30A1005C30A027003027
:101CC000A5276D30AA270630AF273730B427373025
:101CD000B9270630BE270030C327A10B6D2EA00BFD
:101CE0005B2E86272D30A000FF30A1000030A027FA
:101CF0006D30A5270630AA273730AF273730B427F5
:101D00000630B9270030BE277930C327A10B862EB5
:101D1000A00B742E86272D30A000FF30A1006D305F
:101D2000A0270630A5273730AA273730AF2706303F
:101D3000B4270030B9277930BE276F30C327A10BF5
:101D40009F2EA00B8D2E86272D30A000FF30A100E6
:101D50000630A0273730A5273730AA270630AF270F
:101D60000030B4277930B9276F30BE271C30C32725
:101D7000A10BB82EA00BA62E86272D30A000FF3079
:101D8000A1003730A0273730A5270630AA2700301A
:101D9000AF277930B4276F30B9271C30BE27063003
:101DA000C327A10BD12EA00BBF2E86272D30A0005C
:101DB000FF30A1003730A0270630A5270030AA2722
:101DC0007930AF276F30B4271C30B9270630BE27D3
:101DD0007330C327A10BEA2EA00BD82E86272D30F7
:101DE000A000FF30A1000630A0270030A5277930E1
:101DF000AA276F30AF271C30B4270630B9277330BD
:101E0000BE275C30C327A10B032FA00BF12E862722
:101E10002D30A000FF30A1000030A0277930A52789
:101E20006F30AA271C30AF270630B4277330B9278C
:101E30005C30BE270030C327A10B1C2FA00B0A2F3C
:101E400086272D30A000FF30A1007930A0276F3009
:101E5000A5271C30AA270630AF277330B4275C3083
:101E6000B9270030BE275B30C327A10B352FA00B4D
:101E7000232F86272D30A000FF30A1006F30A02730
:101E80001C30A5270630AA277330AF275C30B42753
:101E90000030B9275B30BE270030C327A10B4E2F7F
:101EA000A00B3C2F86272D30A000FF30A1006F3003
:101EB000A0271C30A5270630AA277330AF275C3037
:101EC000B4270030B9275B30BE270030C327A10BF1
:101ED000672FA00B552F86272D30A000FF30A100C3
:101EE0001C30A0270630A5277330AA275C30AF2707
:101EF0000030B4275B30B9270030BE270630C32737
:101F0000A10B802FA00B6E2F8627C82F08148814D2
:101F100008158815081688160817881706108610E1
:101F20000611861106128612061386130800033066
:101F3000A2007E30A300A30B9B2FA20B992F0800B9
:101F40008600081097270814080086008810972735
:101F500088140800860008119727081508008600D5
:101F600088119727881508008600081297270816F9
:101F70000800860088129727881608008600081334
:101F800097270817080086008813972788170800E6
:041F90000A168A1192
:102000002D30A000FF30A1000630FD2473300225E2
:102010005C30072500300C255B301125003016257B
:1020200006301B2554302025A10B1428A00B0228B4
:10203000E3242D30A000FF30A1007330FD245C307C
:102040000225003007255B300C25003011250630B5
:10205000162554301B2578302025A10B2D28A00BE8
:102060001B28E3242D30A000FF30A1005C30FD24AC
:10207000003002255B30072500300C250630112585
:102080005430162578301B2579302025A10B4628A1
:10209000A00B3428E3242D30A000FF30A100003035
:1020A000FD245B3002250030072506300C25543016
:1020B00011257830162579301B257D302025A10B80
:1020C0005F28A00B4D28E3242D30A000FF30A10095
:1020D0005B30FD24003002250630072554300C25E6
:1020E00078301125793016257D301B25503020257C
:1020F000A10B7828A00B6628E3242D30A000FF3028
:10210000A1000030FD240630022554300725783028
:102110000C25793011257D30162550301B25773060
:102120002025A10B9128A00B7F28E3242D30A000AF
:10213000FF30A1000630FD245430022578300725F9
:1021400079300C257D3011255030162577301B2530
:1021500054302025A10BAA28A00B9828E3242D3069
:10216000A000FF30A1005430FD24783002257930E2
:1021700007257D300C255030112577301625373056
:102180001B2578302025A10BC328A00BB128E32400
:102190002D30A000FF30A1007830FD2479300225D9
:1021A0007D30072550300C25773011253730162526
:1021B00078301B2579302025A10BDC28A00BCA28FC
:1021C000E3242D30A000FF30A1007930FD247D30C4
:1021D00002255030072577300C253730112578300F
:1021E000162579301B256D302025A10BF528A00B75
:1021F000E328E3242D30A000FF30A1007D30FD2432
:10220000503002257730072537300C2578301125DE
:10221000793016256D301B2500302025A10B0E29A5
:10222000A00BFC28E3242D30A000FF30A10050308B
:10223000FD24773002255430072578300C2579307D
:1022400011256D30162500301B2537302025A10BB8
:102250002729A00B1529E3242D30A000FF30A10071
:102260007730FD24543002257830072579300C254D
:102270006D3011250030162537301B2537302025CD
:10228000A10B4029A00B2E29E3242D30A000FF3004
:10229000A1005430FD2478300225793007256D30B7
:1022A0000C25003011253730162537301B257730A7
:1022B0002025A10B5929A00B4729E3242D30A0008C
:1022C000FF30A1007830FD24793002256D300725DC
:1022D00000300C25373011253730162577301B2577
:1022E00050302025A10B7229A00B6029E3242D304A
:1022F000A000FF30A1007930FD246D3002250030B0
:10230000072537300C25373011257730162550300A
:102310001B2578302025A10B8B29A00B7929E324DC
:102320002D30A000FF30A1006D30FD2400300225CB
:102330003730072537300C257730112550301625DA
:1023400078301B2506302025A10BA429A00B92294B
:10235000E3242D30A000FF30A1000030FD243730F1
:1023600002253730072577300C255030112578307D
:10237000162506301B2537302025A10BBD29A00BC3
:10238000AB29E3242D30A000FF30A1003730FD241D
:10239000373002257730072550300C25783011254D
:1023A0000630162537301B2579302025A10BD6297C
:1023B000A00BC429E3242D30A000FF30A10037304A
:1023C000FD24773002255030072578300C25063063
:1023D00011253730162579301B255B302025A10BC0
:1023E000EF29A00BDD29E3242D30A000FF30A10050
:1023F0007730FD24503002257830072506300C2533
:1024000037301125793016255B301B25003020250B
:10241000A10B082AA00BF629E3242D30A000FF30E1
:10242000A1005030FD2478300225063007253730D2
:102430000C25793011255B30162500301B253830EE
:102440002025A10B212AA00B0F2AE3242D30A00068
:10245000FF30A1007830FD240630022537300725F3
:1024600079300C255B3011250030162538301B25BE
:102470005C302025A10B3A2AA00B282AE3242D301A
:10248000A000FF30A1000630FD243730022579304E
:1024900007255B300C2500301125383016255C30BF
:1024A0001B2573302025A10B532AA00B412AE324BE
:1024B0002D30A000FF30A1003730FD2479300225F7
:1024C0005B30072500300C25383011255C3016258F
:1024D00073301B2579302025A10B6C2AA00B5A2ABA
:1024E000E3242D30A000FF30A1007930FD245B30C3
:1024F00002250030072538300C255C30112573305B
:10250000162579301B255B302025A10B852AA00BD1
:10251000732AE3242D30A000FF30A1005B30FD249E
:1025200000300225383007255C300C25733011252A
:10253000793016255B301B2500302025A10B9E2A03
:10254000A00B8C2AE3242D30A000FF30A100003026
:10255000FD24383002255C30072573300C25793096
:1025600011255B30162500301B2573302025A10B6B
:10257000B72AA00BA52AE3242D30A000FF30A1002C
:102580003830FD245C3002257330072579300C2566
:102590005B3011250030162573301B251C3020259B
:1025A000A10BD02AA00BBE2AE3242D30A000FF30BF
:1025B000A1005C30FD2473300225793007255B30A3
:1025C0000C2500301125733016251C301B25793061
:1025D0002025A10BE92AA00BD72AE3242D30A00047
:1025E000FF30A1007330FD24793002255B300725D0
:1025F00000300C25733011251C30162579301B2531
:1026000054302025A10B022BA00BF02AE3242D30FF
:10261000A000FF30A1007930FD245B30022500309E
:10262000072573300C251C301125793016255430C0
:102630001B2578302025A10B1B2BA00B092BE32495
:102640002D30A000FF30A1005B30FD2400300225BA
:10265000733007251C300C25793011255430162590
:1026600078301B2579302025A10B342BA00B222B91
:10267000E3242D30A000FF30A1000030FD24733092
:1026800002251C30072579300C255430112578306F
:10269000162579301B2500302025A10B4D2BA00BD2
:1026A0003B2BE3242D30A000FF30A1007330FD242C
:1026B0001C3002257930072554300C25783011253F
:1026C0007930162500301B2550302025A10B662BB4
:1026D000A00B542BE3242D30A000FF30A1001C30B0
:1026E000FD24793002255430072578300C257930C7
:1026F00011250030162550301B2577302025A10BE1
:102700007F2BA00B6D2BE3242D30A000FF30A10008
:102710007930FD24543002257830072579300C2596
:10272000003011255030162577301B2554302025D8
:10273000A10B982BA00B862BE3242D30A000FF309B
:10274000A1005430FD24783002257930072500306F
:102750000C25503011257730162554301B25543068
:102760002025A10BB12BA00B9F2BE3242D30A00023
:10277000FF30A1007830FD24793002250030072594
:1027800050300C25773011255430162554301B2538
:1027900006302025A10BCA2BA00BB82BE3242D302B
:1027A000A000FF30A1007930FD2400300225503018
:1027B000072577300C255430112554301625063066
:1027C0001B2550302025A10BE32BA00BD12BE3249C
:1027D0002D30A000FF30A1000030FD245030022534
:1027E0007730072554300C25543011250630162536
:1027F00050301B2579302025A10BFC2BA00BEA2B98
:10280000E3242D30A000FF30A1005030FD247730AC
:1028100002255430072554300C2506301125503040
:10282000162579301B255B302025A10B152CA00B1C
:10283000032CE3242D30A000FF30A1007730FD24CD
:10284000543002255430072506300C255030112510
:10285000793016255B301B2500302025A10B2E2C4E
:10286000A00B1C2CE3242D30A000FF30A10054301D
:10287000FD24543002250630072550300C257930D0
:1028800011255B30162500301B2506302025A10BB5
:10289000472CA00B352CE3242D30A000FF30A100E5
:1028A0005430FD24063002255030072579300C25A0
:1028B0005B3011250030162506301B2537302025CA
:1028C000A10B602CA00B4E2CE3242D30A000FF3078
:1028D000A1000630FD2450300225793007255B30F9
:1028E0000C25003011250630162537301B255B30AE
:1028F0002025A10B792CA00B672CE3242D30A00000
:10290000FF30A1005030FD24793002255B300725CF
:1029100000300C2506301125373016255B301B257D
:1029200078302025A10B922CA00B802CE3242D3095
:10293000A000FF30A1007930FD245B30022500307B
:10294000072506300C25373011255B3016257830E9
:102950001B2506302025A10BAB2CA00B992CE324C2
:102960002D30A000FF30A1005B30FD240030022597
:102970000630072537300C255B30112578301625B9
:1029800006301B2578302025A10BC42CA00BB22CBF
:10299000E3242D30A000FF30A1000030FD240630DC
:1029A0000225373007255B300C257830112506309D
:1029B000162578301B253E302025A10BDD2CA00BE1
:1029C000CB2CE324252D0814881408158815081627
:1029D0008816081788170610861006118611061229
:1029E00086120613861308000330A2007E30A3006F
:1029F000A30BF82CA20BF62C080086000810F42478
:102A00000814080086008810F42488140800860042
:102A10000811F4240815080086008811F42488158C
:102A2000080086000812F4240816080086008812A0
:102A3000F4248816080086000813F42408170800F8
:102A400086008813F424881708000A128A11CB28FC
:02400E00313F40
:00000001FF
