:020000040000FA
:040000008A016528E4
:08000800A0000308A20083011F
:100010000A08A1008A010408A30084010B191A2010
:10002000833081002308840021088A00220883008D
:1000300020080900A70AA40A64302402031D3028FE
:10004000A401A50A0A302502031D3028A401A50138
:10005000A801091D2D2809112E280915A80AA61482
:100060000B1108008316023081003C308500F0300F
:100070008600003087000330890006309F0083121D
:10008000A0308B0083308100A601870103308500FA
:10009000A001A201A101A301A401A501A601A7013C
:1000A000A801A901B001B101B201B301B401C301BA
:1000B0003030B5003030B6003030B7003030B800E6
:1000C0003030B9003030C000080032206C208E2063
:1000D000CF20D520172167280510383087007D20D4
:1000E0000C3087007D20013087007D20063087009E
:1000F0007D20803087007D200514851082208514A6
:1001000088200800A70101302702031D832808006A
:10011000A70128302702031D8928080005108B300D
:1001200087007D200514350887007D2005108A3062
:1001300087007D200514360887007D200510893052
:1001400087007D2005143A3087007D200510883017
:1001500087007D200514370887007D200510873033
:1001600087007D200514380887007D200510863023
:1001700087007D2005143A3087007D2005108530EA
:1001800087007D200514390887007D200510843004
:1001900087007D200514400887007D2008000000AE
:1001A0002A21A61CCF28A6100800A90A0A30290275
:1001B000031D1629A901B00A06303002031D1629B5
:1001C000A901B001B10A0A303102031D1629B1019B
:1001D000A901B001B20A06303202031D1629B1018D
:1001E000B201B001A901B30A0230340603190C2987
:1001F0000A303302031D1629B101B201B301B00167
:10020000B301B40A02303402031D1629B101B20150
:10021000A901B001B301162904303302031D1629C8
:10022000B301B401B101B201A901B001080030303D
:100230003307B90030303407C00030302907B5002B
:1002400030303007B60030303107B7003030320779
:10025000B80008000F308600000006100608C10034
:10026000F030C10570304102031D422943210F3097
:10027000860086100608C100F030C1057030C1024A
:10028000031D3A29080050215C238A216A23242275
:1002900078236A228623C02294230623A2230800FF
:1002A0000F308600000006100608C100F030C105BE
:1002B000F030410203196429E03041020319B92BDF
:1002C000D03041020319BE2B061400008610060828
:1002D000C100F030C105F030410203196F298614C6
:1002E000000006110608C100F030C105F0304102DF
:1002F00003197A290615000086110608C100F0309E
:10030000C105F030410203195029D03041060319CC
:10031000B42B502902303406031D8F299029CE2991
:100320000F308600000006100608C100F030C1053D
:10033000F03041020319A829E03041020319C92B0A
:10034000D03041020319CE2BB03041020319D32B18
:100350000614000086100608C100F030C105F03018
:1003600041020319B3298614000006110608C100D2
:10037000F030C105F03041020319BE290615000016
:1003800086110608C100F030C105F03041020319A2
:100390009029D03041060319C42B90290F308600D4
:1003A000000006100608C100F030C105F03041021F
:1003B0000319E629E03041020319C92BD03041026C
:1003C0000319CE2BB03041020319D32B06140000C1
:1003D00086100608C100F030C105F0304102031953
:1003E000FD29E03041020319D82BD0304102031916
:1003F000DD2BB03041020319E22B861400000611F8
:100400000608C100F030C105F03041020319142A7A
:10041000E03041020319E72BD03041020319EC2BE5
:10042000B03041020319F12B0615000086110608B1
:10043000C100F030C105F03041060319CE29D0309B
:1004400041060319C42BCE290F3086000000061088
:100450000608C100F030C105F030410203193C2A02
:10046000E03041020319FC2BD03041020319012C6A
:10047000B03041020319062C06140000861006084D
:10048000C100F030C105F030410203194F2AE030BD
:10049000410203190B2CD03041020319102C861491
:1004A000000006110608C100F030C105F03041021D
:1004B00003195A2A0615000086110608C100F030FB
:1004C000C105F03041060319242AD0304106031932
:1004D000F72B242A0F308600000006100608C10002
:1004E000F030C105F03041020319822AE0304102A8
:1004F00003191B2CD03041020319202CB0304102CB
:100500000319252C0614000086100608C100F030DF
:10051000C105F03041020319992AE0304102031964
:100520002A2CD030410203192F2CB030410203197C
:10053000342C8614000006110608C100F030C105F5
:10054000F03041020319B02AE03041020319392C7E
:10055000D030410203193E2CB03041020319432C24
:100560000615000086110608C100F030C105F03004
:10057000410603196A2AD03041060319162C6A2A4B
:100580000F308600000006100608C100F030C105DB
:10059000F03041020319D82AE030410203194E2CF1
:1005A000D03041020319532CB03041020319582CAA
:1005B0000614000086100608C100F030C105F030B6
:1005C00041020319EB2AE030410203195D2CD030BF
:1005D00041020319622C8614000006110608C100AE
:1005E000F030C105F03041020319F62A061500006B
:1005F00086110608C100F030C105F030410603192C
:10060000C02AD03041060319492CC02A0F30860079
:10061000000006100608C100F030C105F0304102AC
:1006200003191E2BE030410203196D2CD03041021A
:100630000319722CB03041020319772C0614000004
:1006400086100608C100F030C105F03041020319E0
:10065000352BE030410203197C2CD03041020319C4
:10066000812CB03041020319862C8614000006113B
:100670000608C100F030C105F030410203194C2BCF
:10068000E030410203198B2CD03041020319902C29
:10069000B03041020319952C06150000861106089A
:1006A000C100F030C105F03041060319062BD030EF
:1006B00041060319682C062B0510843087007D2025
:1006C0000514420887007D20A80101302802031D7F
:1006D000652B08000510853087007D200514420831
:1006E00087007D20A80101302802031D732B08001C
:1006F0000510873087007D200514420887007D2083
:10070000A80101302802031D812B08000510883044
:1007100087007D200514420887007D20A801013054
:100720002802031D8F2B080005108A3087007D20CA
:100730000514420887007D20A80101302802031D0E
:100740009D2B080005108B3087007D200514420882
:1007500087007D20A80101302802031DAB2B080073
:100760002030C200B32B08003030C2000030B4008B
:10077000C32B3130C2000130B400C32B3230C20071
:100780000230B400C32B08003030C2000030B30088
:10079000F62B3130C2000130B300F62B3230C200EC
:1007A0000230B300F62B3330C2000330B300F62B17
:1007B0003430C2000430B300F62B3530C2000530AF
:1007C000B300F62B3630C2000630B300F62B3730BC
:1007D000C2000730B300F62B3830C2000830B30037
:1007E000F62B3930C2000930B300F62B0800303048
:1007F000C2000030B200152C3130C2000130B2000E
:10080000152C3230C2000230B200152C3330C20039
:100810000330B200152C3430C2000430B200152C65
:100820003530C2000530B200152C08003030C2004F
:100830000030B100482C3130C2000130B100482CEA
:100840003230C2000230B100482C3330C2000330D5
:10085000B100482C3430C2000430B100482C35308F
:10086000C2000530B100482C3630C2000630B1005D
:10087000482C3730C2000730B100482C3830C20055
:100880000830B100482C3930C2000930B100482C82
:1008900008003030C2000030B000672C3130C20098
:1008A0000130B000672C3230C2000230B000672C3B
:1008B0003330C2000330B000672C3430C200043043
:1008C000B000672C3530C2000530B000672C08003E
:1008D0003030C2000030A9009A2C3130C200013003
:1008E000A9009A2C3230C2000230A9009A2C333071
:1008F000C2000330A9009A2C3430C2000430A90091
:100900009A2C3530C2000530A9009A2C3630C2002E
:100910000630A9009A2C3730C2000730A9009A2C63
:100920003830C2000830A9009A2C3930C200093092
:06093000A9009A2C08004A
:02400E00393F38
:00000001FF
