:020000040000FA
:040000008A016728E2
:08000800A0000308A100830120
:100010000A08A2008A010408A3000B193F20230844
:10002000840022088A00210883002008853081008E
:10003000090083168230810000308500FF30860081
:1000400000308700FF3088000330890006309F00B1
:10005000831203138501A601A7013030AE00AF0063
:10006000B000B100B200B300A801A901AA01AB0120
:10007000AC01AD01A0308B00853081000800A70ADB
:10008000A40A64302406031D4F284628A401A50AAB
:100090000A302506031D4F28A401A50126140B11C3
:1000A0000800851438305F2001305F2006305F2063
:1000B0000C305F2080305F20080005146028051098
:1000C00087007A2085107A20851480200800192066
:1000D00051206F2074208620A720DC206928000092
:1000E000261C6F2826100800091D78280911080011
:1000F00009150800A70101302702031D7B2808000D
:10010000A70102302702031D7B28080084305F20EE
:1001100032085D2085305F2033085D2086305F2007
:100120003A305D2087305F2030085D2088305F20C6
:1001300031085D2089305F203A305D208A305F20B1
:100140002E085D208B305F202F085D200800A90A53
:100150000A302902031DDB28A901A80A063028025B
:10016000031DDB28A901A801AB0A0A302B02031DDD
:10017000DB28AB01AA0A06302A02031DDB28AB01EB
:10018000AA01AD0AA618D0280A302D02031DDB28CB
:10019000AD01AC0A02302C02031DDB28A614DB28BB
:1001A00004302D02031DDB28AD01AC01AB01AA0117
:1001B000A901A801A61008002908EF20AF0028080F
:1001C000EF20AE002B08EF20B1002A08EF20B0008E
:1001D0002D08EF20B3002C08EF20B20008008207A2
:1001E00030343134323433343434353436343734D3
:0401F0003834393432
:02400E00393F38
:00000001FF
