:020000040000FA
:040000008A011A282F
:0800080000000900831681309D
:1000100081003F30850000308600FF3087000030CF
:1000200088000730890006309F0083128601FF3068
:100030008800080006203F30A600A700A800A900FD
:10004000AA00AB00AA00AB00A001A101A201A3017C
:10005000A401A5012E205C2084202A282E30AE0089
:10006000F830AD002A0886000810EA2008142B0892
:1000700086008810EA208814403086000811881213
:10008000EA2008158816280886008811EA208815B5
:10009000290886000812EA20081626088600081398
:1000A000EA200817270886008813EA208817AD0B76
:1000B0003228AE0B30280800A10A0A302102031DA5
:1000C0008328A101A00A06302002031D8328A10174
:1000D000A001A30A0A302302031D8328A301A20A58
:1000E00006302202031D8328A301A201A50A0A30BB
:1000F0002502031D8328A501A40A02302402031D42
:100100008328A501A40108002108AC00A3202C0825
:10011000A7002008AC00A3202C08A6002308AC00F0
:10012000A3202C08A9002208AC00A3202C08A800BA
:100130002508AC00A3202C08AB002408AC00A320A9
:100140002C08AA00080000302C020319CC2801302A
:100150002C020319CF2802302C020319D2280330B5
:100160002C020319D52804302C020319D828053095
:100170002C020319DB2806302C020319DE28073075
:100180002C020319E12808302C020319E428093055
:100190002C020319E728E9283F30AC00E928063093
:1001A000AC00E9285B30AC00E9284F30AC00E9280E
:1001B0006630AC00E9286D30AC00E9287D30AC0039
:1001C000E9280730AC00E9287F30AC00E928673027
:0E01D000AC0008000130B000B00BEC280800B5
:02400E00313F40
:00000001FF
