:020000040000FA
:040000008A01A728A2
:08000800A0000308A100830120
:100010000A08A2008A010408A3000B19342023084F
:10002000840022088A00210883002008853081008E
:1000300009008316823081003F3085000030860041
:10004000FF308700003088000330890006309F00B1
:10005000831203138601A801A901FF308800A03094
:100060008B00853081000800A80AA40A64302406A9
:10007000031D4B28A90AAB0A3D28A401A50A0A3092
:100080002506031D4B28A401A501A70A091D4A281E
:1000900009114B2809150B110800260882070000DA
:1000A00001340234043408341034000008002608F7
:1000B00082070000C134FA34F634EE34C134000053
:1000C0000800260882070000FF34F734EB34DD34E3
:1000D000FF3400000800260882070000FD34FE34CB
:1000E000A634FA34FD340000080026088207000018
:1000F000C034FD34FE34FE34FD3400000800260810
:1001000082070000FF34E934D634D634E1340000ED
:100110000800260882070000EF349534E234953455
:10012000EF3400000800260882070000BB34D534F5
:10013000E234D534BB3400000800260882070000F2
:10014000F7349734EB349734F73400000800192063
:100200001C212E2140215221642176218821762132
:1002100088217621882176218821762188217621DE
:100220009A2176219A2176219A2176219A21762186
:100230009A2176219A210029A701A60105302702DB
:1002400003190800A60A4D208600572088000530B3
:100250002602031D2C29A601AC211E29A701A601F7
:100260000530270203190800A60A4D2086006120E8
:10027000880005302602031D3E29A601AC21302945
:10028000A701A6010530270203190800A60A4D2080
:1002900086006B20880005302602031D5029A60128
:1002A000AC214229A701A601053027020319080045
:1002B000A60A4D2086007520880005302602031D01
:1002C0006229A601AC215429A701A6010530270205
:1002D00003190800A60A4D2086007F2088000530FB
:1002E0002602031D7429A601AC216629AB01A601D3
:1002F00005302B0203190800A60A4D20860089202C
:10030000880005302602031D8629A601AC21782924
:10031000AB01A60105302B0203190800A60A4D20E7
:1003200086009320880005302602031D9829A60127
:10033000AC218A29AB01A60105302B020319080064
:10034000A60A4D2086009D20880005302602031D48
:10035000AA29A601AC219C29A80103302802031D6B
:10036000AD290800A90105302902031DB3290800A1
:02400E00393F38
:00000001FF
