:020000040000FA
:040000008A015C28ED
:08000800A0000308A100830120
:100010000A08A2008A010408A3000B19362023084D
:10002000840022088A00210883002008853081008E
:10003000090083160230810000308500F030860010
:1000400000308700003088000030890006309F00B3
:1000500083120313A0308B00853081008701880153
:10006000FF3086000516851505150800A70AA40AA5
:1000700064302406031D4E28A80A3E28A401A50AC0
:100080000A302506031D4E28A401A501A60AA918B9
:100090004B28851E4D2885124E2885160B11080009
:1000A00085143830B7210130B7210630B7210C3024
:1000B000B7218030B7210800192050201621BE2119
:1000C00062206028A914FC2149210B230B23013055
:1000D000480603197128023048060319CE2800008B
:1000E0006228A9103922F92288018901B5228430B9
:1000F000B721291149210B230B23FF30480603198F
:1001000079280421291D79284908B5214808890042
:1001100049210B230B23FF3048060319882849087F
:10012000B521C80E4808880049210B230B23FF3056
:100130004806031994284908B52148088807C5309E
:10014000B721A91908008316FF3087008312031313
:10015000851105150512F3220708C600051585153A
:1001600083160030870083120313F0304605C80061
:10017000C80EA221B5210F30C60546084830A2217D
:10018000B521A91449210B230B230A304806031972
:1001900062280B30480603197128C228A91077225B
:1001A000F92288018901B522A9157720A911C53046
:1001B000B72149210B230B23FF3048060319D92807
:1001C0004908B521C80E4808C50049210B230B2357
:1001D000FF3048060319E5284908B5214808C50736
:1001E0004508870005118515F32205150516A91484
:1001F00049210B230B230A3048060319CE280B3064
:10020000480603196228F828C7010730C7004708C5
:100210004806031914290000003047060319122963
:10022000C70307292911080029150800C701303024
:10023000840001308000840A02308000840A033088
:100240008000840A0A308000840A04308000840A16
:1002500005308000840A06308000840A0B3080005C
:10026000840A07308000840A08308000840A09303C
:100270008000840A0C308000840AFF308000840AE9
:1002800000308000840AFF308000840A0D30800036
:100290000800C901C801C701F3220E30C90049088E
:1002A000860000000608C800F030C805C80E00002F
:1002B00000000F30480603195F2900006B29C801B0
:1002C0000314C90D0F30C905000000000F304906A6
:1002D000031949294F297E21C7008E21C707040829
:1002E000A3008401470884000008C80000008401BE
:1002F00023088400A301A221C90008000E3049068A
:10030000031930340D304906031934340B304906D3
:10031000031938340730490603193C340E304806B7
:10032000031900340D304806031901340B30480618
:100330000319023407304806031903340000000093
:10034000492908000A304806031941340B30480691
:10035000031942340C304806031943340D30480663
:10036000031944343030480708000514B829051033
:100370008700F3228510F322851408000130B7218D
:100380008030B7214D30B5214130B5214E30B521F7
:100390004530B5214A30B5214F30B5212030B52147
:1003A0004430B5214530B5212030B5215530B52137
:1003B0004E30B5214130B5212030B521C030B721B4
:1003C0004D30B5214530B5214D30B5214F30B521E7
:1003D0005230B5214930B5214130B5212030B52109
:1003E0005230B5214130B5214D30B5212030B521F5
:1003F0002030B521FF2208000130B7218030B7211D
:100400002030B5212030B5212030B5214F30B52125
:100410005030B5214330B5214930B5214F30B52199
:100420004E30B5213A30B5212030B5212030B521EC
:100430002030B5212030B521C030B7213130B52171
:100440005230B5214530B5214130B5214430B52178
:100450002030B5212030B5213230B5215730B521BB
:100460005230B5214930B5215430B5214530B52140
:1004700008000130B7218030B7212030B52120306D
:10048000B5212030B5214F30B5214F30B521433053
:10049000B5214930B5214F30B5214E30B52120303E
:1004A000B5213130B5212030B5212030B5212030A3
:1004B000B521C030B7212030B5212030B521203002
:1004C000B5214C30B5214530B5214330B5215430EC
:1004D000B5215530B5215230B5214130B5212030FC
:1004E000B5212030B5212030B521F9220800013096
:1004F000B7218030B7212030B5212030B521203000
:10050000B5214F30B5214F30B5214330B5214930A9
:10051000B5214F30B5214E30B5212030B5213230D4
:10052000B5212030B5212030B5212030B521C03093
:10053000B7212030B5212030B5214530B5215330C9
:10054000B5214330B5215230B5214930B521543061
:10055000B5215530B5215230B5214130B52120307B
:10056000B5212030B521F92208000130B7218030B3
:10057000B7214430B5214930B5215230B5213A3048
:10058000B5215830B5215830B5215830B521483003
:10059000B5212030B5212030B5212030B5212030C3
:1005A000B5212030B5212030B521C030B7214430ED
:1005B000B5214130B5215430B5214F30B5213A3005
:1005C000B5215830B5215830B5214830B5212030FB
:1005D000B5212030B5212030B5212030B521203083
:1005E000B521F9220800A70101302702031DF42AD2
:1005F0000800A60103302602031DFA2A0800A601FE
:1006000008302602031D002B0800A70164302702D2
:10061000031D062B0800A701C8302702031D0C2B61
:100620000800A70105302702031D122B0800A701AF
:1006300002302702031D182B0800A70110302702E3
:10064000031D1E2B0800A70104302702031D242BC5
:0E0650000800A70108302702031D2A2B08000E
:02400E00393F38
:00000001FF
