:020000040000FA
:040000008A015428F5
:08000800A0000308A100830120
:100010000A08A2008A010408A3000B19362023084D
:10002000840022088A00210883002008853081008E
:1000300009008316823081003F308500FF30860042
:10004000FF308700F03088000730890006309F00BD
:1000500083120313A0308B00853081008701880153
:10006000890186018814081588110800A40A6430E3
:100070002406031D45283C28A401A50A0A302506AC
:10008000031D4528A401A50129140B1108008207AE
:100090003F3406345B344F3466346D347D3407347A
:0A00A0007F346F34000008001920BF
:100200000A2129210421002929100000291C05297F
:1002100029100800AA0A0A302A06031D0800AA01AC
:10022000AB0A06302B06031D0800AA01AB01AC0A7D
:100230000A302C06031D0800AA01AB01AC01AD0A6F
:1002400006302D06031D0800AA01AB01AC01AD016B
:1002500008002A084720AE003B212B084720AE00AB
:100260003B212C084720AE003B212D084720AE0043
:100270003B2100000800AF0108302F060319502968
:10028000AE0D031C442946290810482908144829A2
:10029000881000008814081100000815AF0A3C29D6
:0402A000AF010800A2
:02400E00393F38
:00000001FF
