:020000040000FA
:040000008A011A282F
:0800080000000900831681309D
:1000100081003F30850000308600003087000030CE
:1000200088000730890006309F0083128601FF3068
:100030008800080006201F20242032201B28870863
:100040000F302505A60008002E30A100FF30A000CB
:100050002408860088137D208817A00B2828A10B70
:10006000262808002608A70038202708A400080032
:10007000270203195F280130270203196228023082
:100080002702031965280330270203196828043062
:10009000270203196B280530270203196E28063042
:1000A0002702031971280730270203197428083022
:1000B0002702031977280930270203197A283F30CD
:1000C000A7007C280630A7007C285B30A7007C288E
:1000D0004F30A7007C286630A7007C286D30A70031
:1000E0007C287D30A7007C280730A7007C287F3043
:1000F000A7007C286730A70008000130A300A30BED
:040100007F2808004C
:02400E00313F40
:00000001FF
