:020000040000FA
:040000008A015028F9
:08000800A0000308A100830120
:100010000A08A2008A010408A3000B19192023086A
:10002000840022088A002108830020088330810090
:100030000900A70AA40A64302406031D29282028E1
:10004000A401A50A0A302506031D2928A401A5013B
:1000500026140B11080083168230810000308500C1
:10006000FF30860000308700FF30880003308900B1
:1000700006309F008312A0308B0083308100A601E0
:10008000A701870103308500080038305D2001306A
:100090005D2006305D200C305D2080305D20080042
:1000A0002B204520642069205620522884305D2072
:1000B00045305B20080005145E2805108700851078
:1000C0006F208514752008000000261C6428261067
:1000D0000800091D6D280911080009150800A7016D
:1000E00001302702031D70280800A70128302702CD
:0600F000031D7628080044
:02400E00393F38
:00000001FF
