:020000040000FA
:040000008A01C12888
:08000800A0000308A100830120
:100010000A08A2008A010408A3000B19362023084D
:10002000840022088A00210883002008853081008E
:1000300009008316023081003C308500F0308600D4
:1000400000308700003088000330890006309F00B0
:1000500083120313A0308B008530810000308700AD
:100060008800AA00A900FF3086000800A70AA40A99
:1000700064302406031D4C28A80A3E28A401A50AC2
:100080000A302506031D4C28A401A501A60A091D56
:100090004B2809114C2809150B110800851438301C
:1000A0003D2101303D2106303D210C303D21803085
:1000B0003D21080029088207632868286F287228D4
:1000C0000000000008008030880032223222080040
:1000D000FF30880032228030880032220800AB01D5
:1000E00028210800AB019F2008002A088207000091
:1000F0007F348B349834A434B034BB34C634D03419
:10010000D934E134E934EF34F434F934FC34FD34D7
:10011000FF3408002A08820700007F3473346634F5
:100120005A344E34433438342E3425341D34153487
:100130000F340A3405340234013400340800AA01B3
:10014000AA0A752088003E2211302A02031DA02829
:10015000AA03752088003E2200302A02031DA82829
:10016000AA0A8A2088003E2211302A02031DB028E4
:10017000AA038A2088003E2200302A02031DB828E4
:06018000080019204E20CA
:100200004521262274210621262203290E3086004C
:10021000061E1429861E1929061F1E290D30860068
:10022000061E23295A200629B1212C220130A900BB
:100230000629FB212C220230A9000629D6212C22D6
:100240000330A900062974212C220030A9000629B8
:100250000F30AB072B0888003822FF302B06031D18
:1002600028290F30AB022B088800382200302B06DB
:10027000031D3129080005143E290510870020229E
:100280008510202285142022080080303D2147302F
:100290003B2145303B214E303B2145303B21523004
:1002A0003B2141303B2144303B214F303B215230F8
:1002B0003B2120303B2144303B2145303B21C030A5
:1002C0003D2146303B2155303B214E303B214330D0
:1002D0003B2149303B214F303B214E303B214530C3
:1002E0003B2153303B21080001303D2180303D212E
:1002F00053303B2145303B214C303B2145303B21A5
:1003000043303B2143303B2149303B214F303B219F
:100310004E303B2141303B2120303B2155303B21A9
:100320004E303B2141303B21C0303D214F303B21FD
:1003300050303B2143303B2149303B214F303B2162
:100340004E303B213A303B2120303B2131303B21A4
:1003500020303B2132303B2120303B2133303B21C8
:10036000080001303D2180303D2153303B21453094
:100370003B214E303B2141303B214C303B21203052
:100380003B2143303B2155303B2141303B21443020
:100390003B2152303B2141303B2154303B214930FD
:1003A0003B2143303B2141303B21080001303D21BE
:1003B00080303D2153303B2145303B214E303B21A5
:1003C00041303B214C303B2120303B2153303B21FD
:1003D00045303B214E303B214F303B2149303B21C2
:1003E00044303B2141303B214C303B2120303B21EC
:1003F00020303B21080001303D2180303D21533029
:100400003B2145303B214E303B2141303B214C309C
:100410003B2120303B2154303B2152303B2149309D
:100420003B2141303B214E303B2147303B21553071
:100430003B214C303B2141303B2152303B210800D5
:10044000A70101302702031D212A0800A60105305B
:100450002602031D272A0800A70164302702031D76
:10046000212A0800A7014E302702031D332A080065
:10047000A70105302702031D392A0800A701023011
:080480002702031D3F2A0800BA
:02400E00393F38
:00000001FF
