:020000040000FA
:040000008A01172832
:0800080000000900831681309D
:1000100081003F3085000030860000308700FF30CF
:1000200088000730890006309F00831208000620F0
:1000300007148714071587150716871607178717DC
:1000400006308600071007143730860087108714A3
:100050006D308600071107157830860087118715E7
:10006000063086000712071678308600871287163A
:100070003E308600071307177830860087138717EE
:10008000202473308600071007143F308600871045
:10009000871438308600071107150630860087114F
:1000A0008715783086000712071679308600871288
:1000B00087163930860007130717373086008713F5
:1000C0008717202437308600071007147730860002
:1000D000871087143930860007110715063086000F
:1000E000871187153F3086000712071637308600C4
:1000F0008712871677308600071307173830860077
:1001000087138717202439308600071007147930A9
:1001100086008710871439308600071107156E3066
:100120008600871187157830860007120716003081
:100130008600871287166F30860007130717003076
:1001400086008713871720241E30860007100714A7
:100150003E30860087108714773086000711071518
:100160003730860087118715003086000712071682
:100170005E308600871287167930860007130717CE
:10018000003086008713871720245E308600071012
:10019000071406308600871087145C30860007112C
:1001A00007156D308600871187150030860007120D
:1001B00007167C3086008712871677308600071373
:1001C000071778308600871387172024733086003E
:1001D0000710071450308600871087147730860088
:1001E000071107155830860087118715783086006B
:1001F00007120716103086008712871658308600BF
:1002000007130717773086008713871720244F308E
:1002100086000710071400308600871087143730D7
:10022000860007110715373086008711871577304C
:10023000860007120716373086008712871610309F
:10024000860007130717733086008713871720244B
:100250005E308600071007147930860087108714F7
:1002600000308600071107155E308600871187155C
:1002700010308600071207166D3086008712871629
:100280007330860007130717063086008713871719
:10029000202473308600071007145C308600871016
:1002A000871450308600071107150030860087112B
:1002B00087155430860007120716543086008712BF
:1002C00087161030860007130717583086008713EB
:1002D0008717202458308600071007145C308600EA
:1002E0008710871454308600071107157830860070
:1002F0008711871550308600071207165C3086007C
:10030000871287160130860007130717773086009B
:1003100087138717202458308600071007145C3095
:10032000860087108714543086000711071578302F
:1003300086008711871550308600071207165C303B
:100340008600871287160630860007130717773056
:1003500086008713871720247D3086000710071436
:1003600050308600871087141C308600071107154F
:1003700073308600871187155C30860007120716D8
:100380000030860087128716003086000713071793
:10039000003086008713871720246D3086000710F1
:1003A0000714103086008710871454308600071118
:1003B000071554308600871187150630860007120E
:1003C0000716003086008712871600308600071354
:1003D000071700308600871387172024793086009E
:1003E000071007146F308600871087141C308600B2
:1003F00007110715103086008711871573308600A6
:10040000071207165C3086008712871600308600B8
:10041000071307175B3086008713871720240630E1
:100420008600071007145430860087108714783030
:1004300086000711071579308600871187157D30F2
:10044000860007120716503086008712871677300D
:100450008600071307175430860087138717202458
:100460005430860007100714543086008710871414
:1004700077308600071107155030860087118715E1
:10048000783086000712071610308600871287160C
:1004900054308600071307177930860087138717B3
:1004A00020245C308600071007146D30860087100A
:1004B00087145C30860007110715503086008711BD
:1004C000871510308600071207165C3086008712E9
:1004D0008716003086000713071700308600871341
:1004E00087172024543086000710071454308600E4
:1004F0008710871410308600071107157D3086009D
:10050000871187151C308600071207167930860080
:1005100087128716063086000713071700308600FB
:10052000871387172024773086000710071454306C
:100530008600871087147D308600071107157930F3
:1005400086008711871506308600071207160030CF
:1005500086008712871600308600071307170030C1
:100560008600871387172024383086000710071469
:100570005C308600871087147330860007110715DA
:1005800079308600871187155B30860007120716C1
:100590000030860087128716003086000713071781
:1005A0000030860087138717202438308600071014
:1005B00007145C308600871087147330860007119B
:1005C000071579308600871187155B308600071282
:1005D0000716003086008712871600308600071342
:1005E0000717003086008713871720245E308600A7
:1005F0000710071477308600871087141C30860098
:100600000711071510308600871187155E308600A8
:100610000712071600308600871287160030860002
:100620000713071700308600871387172024103020
:100630008600071007146D30860087108714773006
:1006400086000711071510308600871187150030C6
:1006500086000712071600308600871287160030C2
:10066000860007130717003086008713871720249A
:1006700073308600071007141C308600871087141B
:1006800079308600071107155430860087118715C9
:100690007830860007120716793086008712871691
:1006A000003086000713071700308600871387176E
:1006B0002024393086000710071477308600871011
:1006C00087146D3086000711071578308600871172
:1006D000871550308600071207165C308600871297
:1006E000871600308600071307170030860087132F
:1006F000871720245E30860007100714103086000C
:10070000871087140630860007110715773086009A
:1007100087118715543086000712071600308600AF
:1007200087128716003086000713071700308600EF
:100730008713871720247630860007100714773038
:100740008600871087145B3086000711071510306C
:100750008600871187157930860007120716063044
:1007600086008712871600308600071307170030AF
:10077000860087138717202450308600071007143F
:1007800077308600871087145430860007110715CC
:10079000543086008711871510308600071207161F
:1007A00050308600871287167930860007130717A6
:1007B0005B3086008713871720241C3086000710C3
:1007C00007147730860087108714063086000711DB
:1007D0000715793086008711871554308600071277
:1007E00007165830860087128716103086000713C8
:1007F0000717773086008713871720247930860003
:100800000710071454308600871087145030860074
:100810000711071510308600871187156F30860085
:10082000071207161C30860087128716793086005B
:10083000071307170030860087138717202418280E
:100840000830A200FF30A100FF30A000A00B262C32
:0A085000A10B242CA20B222C08009F
:02400E00313F40
:00000001FF
